{
  "_format": "hh-sol-artifact-1",
  "contractName": "MyNFT",
  "sourceName": "contracts/Mynft.sol",
  "abi": [
    {
      "inputs": [],
      "stateMutability": "nonpayable",
      "type": "constructor"
    },
    {
      "anonymous": false,
      "inputs": [
        {
          "indexed": true,
          "internalType": "address",
          "name": "owner",
          "type": "address"
        },
        {
          "indexed": true,
          "internalType": "address",
          "name": "approved",
          "type": "address"
        },
        {
          "indexed": true,
          "internalType": "uint256",
          "name": "tokenId",
          "type": "uint256"
        }
      ],
      "name": "Approval",
      "type": "event"
    },
    {
      "anonymous": false,
      "inputs": [
        {
          "indexed": true,
          "internalType": "address",
          "name": "owner",
          "type": "address"
        },
        {
          "indexed": true,
          "internalType": "address",
          "name": "operator",
          "type": "address"
        },
        {
          "indexed": false,
          "internalType": "bool",
          "name": "approved",
          "type": "bool"
        }
      ],
      "name": "ApprovalForAll",
      "type": "event"
    },
    {
      "anonymous": false,
      "inputs": [
        {
          "indexed": true,
          "internalType": "address",
          "name": "previousOwner",
          "type": "address"
        },
        {
          "indexed": true,
          "internalType": "address",
          "name": "newOwner",
          "type": "address"
        }
      ],
      "name": "OwnershipTransferred",
      "type": "event"
    },
    {
      "anonymous": false,
      "inputs": [
        {
          "indexed": true,
          "internalType": "address",
          "name": "from",
          "type": "address"
        },
        {
          "indexed": true,
          "internalType": "address",
          "name": "to",
          "type": "address"
        },
        {
          "indexed": true,
          "internalType": "uint256",
          "name": "tokenId",
          "type": "uint256"
        }
      ],
      "name": "Transfer",
      "type": "event"
    },
    {
      "inputs": [
        {
          "internalType": "address",
          "name": "to",
          "type": "address"
        },
        {
          "internalType": "uint256",
          "name": "tokenId",
          "type": "uint256"
        }
      ],
      "name": "approve",
      "outputs": [],
      "stateMutability": "nonpayable",
      "type": "function"
    },
    {
      "inputs": [
        {
          "internalType": "address",
          "name": "owner",
          "type": "address"
        }
      ],
      "name": "balanceOf",
      "outputs": [
        {
          "internalType": "uint256",
          "name": "",
          "type": "uint256"
        }
      ],
      "stateMutability": "view",
      "type": "function"
    },
    {
      "inputs": [
        {
          "internalType": "address",
          "name": "receiver",
          "type": "address"
        },
        {
          "internalType": "string",
          "name": "tokenURI",
          "type": "string"
        }
      ],
      "name": "createNFT",
      "outputs": [
        {
          "internalType": "uint256",
          "name": "",
          "type": "uint256"
        }
      ],
      "stateMutability": "nonpayable",
      "type": "function"
    },
    {
      "inputs": [
        {
          "internalType": "uint256",
          "name": "tokenId",
          "type": "uint256"
        }
      ],
      "name": "getApproved",
      "outputs": [
        {
          "internalType": "address",
          "name": "",
          "type": "address"
        }
      ],
      "stateMutability": "view",
      "type": "function"
    },
    {
      "inputs": [
        {
          "internalType": "address",
          "name": "owner",
          "type": "address"
        },
        {
          "internalType": "address",
          "name": "operator",
          "type": "address"
        }
      ],
      "name": "isApprovedForAll",
      "outputs": [
        {
          "internalType": "bool",
          "name": "",
          "type": "bool"
        }
      ],
      "stateMutability": "view",
      "type": "function"
    },
    {
      "inputs": [],
      "name": "name",
      "outputs": [
        {
          "internalType": "string",
          "name": "",
          "type": "string"
        }
      ],
      "stateMutability": "view",
      "type": "function"
    },
    {
      "inputs": [],
      "name": "owner",
      "outputs": [
        {
          "internalType": "address",
          "name": "",
          "type": "address"
        }
      ],
      "stateMutability": "view",
      "type": "function"
    },
    {
      "inputs": [
        {
          "internalType": "uint256",
          "name": "tokenId",
          "type": "uint256"
        }
      ],
      "name": "ownerOf",
      "outputs": [
        {
          "internalType": "address",
          "name": "",
          "type": "address"
        }
      ],
      "stateMutability": "view",
      "type": "function"
    },
    {
      "inputs": [],
      "name": "renounceOwnership",
      "outputs": [],
      "stateMutability": "nonpayable",
      "type": "function"
    },
    {
      "inputs": [
        {
          "internalType": "address",
          "name": "from",
          "type": "address"
        },
        {
          "internalType": "address",
          "name": "to",
          "type": "address"
        },
        {
          "internalType": "uint256",
          "name": "tokenId",
          "type": "uint256"
        }
      ],
      "name": "safeTransferFrom",
      "outputs": [],
      "stateMutability": "nonpayable",
      "type": "function"
    },
    {
      "inputs": [
        {
          "internalType": "address",
          "name": "from",
          "type": "address"
        },
        {
          "internalType": "address",
          "name": "to",
          "type": "address"
        },
        {
          "internalType": "uint256",
          "name": "tokenId",
          "type": "uint256"
        },
        {
          "internalType": "bytes",
          "name": "data",
          "type": "bytes"
        }
      ],
      "name": "safeTransferFrom",
      "outputs": [],
      "stateMutability": "nonpayable",
      "type": "function"
    },
    {
      "inputs": [
        {
          "internalType": "address",
          "name": "operator",
          "type": "address"
        },
        {
          "internalType": "bool",
          "name": "approved",
          "type": "bool"
        }
      ],
      "name": "setApprovalForAll",
      "outputs": [],
      "stateMutability": "nonpayable",
      "type": "function"
    },
    {
      "inputs": [
        {
          "internalType": "bytes4",
          "name": "interfaceId",
          "type": "bytes4"
        }
      ],
      "name": "supportsInterface",
      "outputs": [
        {
          "internalType": "bool",
          "name": "",
          "type": "bool"
        }
      ],
      "stateMutability": "view",
      "type": "function"
    },
    {
      "inputs": [],
      "name": "symbol",
      "outputs": [
        {
          "internalType": "string",
          "name": "",
          "type": "string"
        }
      ],
      "stateMutability": "view",
      "type": "function"
    },
    {
      "inputs": [
        {
          "internalType": "uint256",
          "name": "tokenId",
          "type": "uint256"
        }
      ],
      "name": "tokenURI",
      "outputs": [
        {
          "internalType": "string",
          "name": "",
          "type": "string"
        }
      ],
      "stateMutability": "view",
      "type": "function"
    },
    {
      "inputs": [
        {
          "internalType": "address",
          "name": "from",
          "type": "address"
        },
        {
          "internalType": "address",
          "name": "to",
          "type": "address"
        },
        {
          "internalType": "uint256",
          "name": "tokenId",
          "type": "uint256"
        }
      ],
      "name": "transferFrom",
      "outputs": [],
      "stateMutability": "nonpayable",
      "type": "function"
    },
    {
      "inputs": [
        {
          "internalType": "address",
          "name": "newOwner",
          "type": "address"
        }
      ],
      "name": "transferOwnership",
      "outputs": [],
      "stateMutability": "nonpayable",
      "type": "function"
    },
    {
      "inputs": [
        {
          "internalType": "address",
          "name": "_from",
          "type": "address"
        },
        {
          "internalType": "address",
          "name": "_to",
          "type": "address"
        },
        {
          "internalType": "uint256",
          "name": "_tokenId",
          "type": "uint256"
        }
      ],
      "name": "transferTokenTo",
      "outputs": [],
      "stateMutability": "nonpayable",
      "type": "function"
    }
  ],
  "bytecode": "0x60806040523480156200001157600080fd5b506040518060400160405280600581526020017f4d794e46540000000000000000000000000000000000000000000000000000008152506040518060400160405280600381526020017f4e46540000000000000000000000000000000000000000000000000000000000815250816000908051906020019062000096929190620001a6565b508060019080519060200190620000af929190620001a6565b505050620000d2620000c6620000d860201b60201c565b620000e060201b60201c565b620002bb565b600033905090565b6000600660009054906101000a900473ffffffffffffffffffffffffffffffffffffffff16905081600660006101000a81548173ffffffffffffffffffffffffffffffffffffffff021916908373ffffffffffffffffffffffffffffffffffffffff1602179055508173ffffffffffffffffffffffffffffffffffffffff168173ffffffffffffffffffffffffffffffffffffffff167f8be0079c531659141344cd1fd0a4f28419497f9722a3daafe3b4186f6b6457e060405160405180910390a35050565b828054620001b49062000256565b90600052602060002090601f016020900481019282620001d8576000855562000224565b82601f10620001f357805160ff191683800117855562000224565b8280016001018555821562000224579182015b828111156200022357825182559160200191906001019062000206565b5b50905062000233919062000237565b5090565b5b808211156200025257600081600090555060010162000238565b5090565b600060028204905060018216806200026f57607f821691505b602082108114156200028657620002856200028c565b5b50919050565b7f4e487b7100000000000000000000000000000000000000000000000000000000600052602260045260246000fd5b612b6f80620002cb6000396000f3fe608060405234801561001057600080fd5b50600436106101165760003560e01c8063715018a6116100a2578063a561403311610071578063a5614033146102cb578063b88d4fde146102fb578063c87b56dd14610317578063e985e9c514610347578063f2fde38b1461037757610116565b8063715018a6146102695780638da5cb5b1461027357806395d89b4114610291578063a22cb465146102af57610116565b80630d172a01116100e95780630d172a01146101b557806323b872dd146101d157806342842e0e146101ed5780636352211e1461020957806370a082311461023957610116565b806301ffc9a71461011b57806306fdde031461014b578063081812fc14610169578063095ea7b314610199575b600080fd5b61013560048036038101906101309190611d29565b610393565b60405161014291906124c7565b60405180910390f35b610153610475565b60405161016091906124e2565b60405180910390f35b610183600480360381019061017e9190611d7b565b610507565b6040516101909190612460565b60405180910390f35b6101b360048036038101906101ae9190611ced565b61058c565b005b6101cf60048036038101906101ca9190611b93565b6106a4565b005b6101eb60048036038101906101e69190611b93565b6106b4565b005b61020760048036038101906102029190611b93565b610714565b005b610223600480360381019061021e9190611d7b565b610734565b6040516102309190612460565b60405180910390f35b610253600480360381019061024e9190611b2e565b6107e6565b6040516102609190612704565b60405180910390f35b61027161089e565b005b61027b610926565b6040516102889190612460565b60405180910390f35b610299610950565b6040516102a691906124e2565b60405180910390f35b6102c960048036038101906102c49190611c5d565b6109e2565b005b6102e560048036038101906102e09190611c99565b6109f8565b6040516102f29190612704565b60405180910390f35b61031560048036038101906103109190611be2565b610aa2565b005b610331600480360381019061032c9190611d7b565b610afd565b60405161033e91906124e2565b60405180910390f35b610361600480360381019061035c9190611b57565b610ba4565b60405161036e91906124c7565b60405180910390f35b610391600480360381019061038c9190611b2e565b610c38565b005b60007f80ac58cd000000000000000000000000000000000000000000000000000000007bffffffffffffffffffffffffffffffffffffffffffffffffffffffff1916827bffffffffffffffffffffffffffffffffffffffffffffffffffffffff1916148061045e57507f5b5e139f000000000000000000000000000000000000000000000000000000007bffffffffffffffffffffffffffffffffffffffffffffffffffffffff1916827bffffffffffffffffffffffffffffffffffffffffffffffffffffffff1916145b8061046e575061046d82610d30565b5b9050919050565b60606000805461048490612964565b80601f01602080910402602001604051908101604052809291908181526020018280546104b090612964565b80156104fd5780601f106104d2576101008083540402835291602001916104fd565b820191906000526020600020905b8154815290600101906020018083116104e057829003601f168201915b5050505050905090565b600061051282610d9a565b610551576040517f08c379a000000000000000000000000000000000000000000000000000000000815260040161054890612644565b60405180910390fd5b6004600083815260200190815260200160002060009054906101000a900473ffffffffffffffffffffffffffffffffffffffff169050919050565b600061059782610734565b90508073ffffffffffffffffffffffffffffffffffffffff168373ffffffffffffffffffffffffffffffffffffffff161415610608576040517f08c379a00000000000000000000000000000000000000000000000000000000081526004016105ff906126c4565b60405180910390fd5b8073ffffffffffffffffffffffffffffffffffffffff16610627610e06565b73ffffffffffffffffffffffffffffffffffffffff161480610656575061065581610650610e06565b610ba4565b5b610695576040517f08c379a000000000000000000000000000000000000000000000000000000000815260040161068c906125c4565b60405180910390fd5b61069f8383610e0e565b505050565b6106af838383610714565b505050565b6106c56106bf610e06565b82610ec7565b610704576040517f08c379a00000000000000000000000000000000000000000000000000000000081526004016106fb906126e4565b60405180910390fd5b61070f838383610fa5565b505050565b61072f83838360405180602001604052806000815250610aa2565b505050565b6000806002600084815260200190815260200160002060009054906101000a900473ffffffffffffffffffffffffffffffffffffffff169050600073ffffffffffffffffffffffffffffffffffffffff168173ffffffffffffffffffffffffffffffffffffffff1614156107dd576040517f08c379a00000000000000000000000000000000000000000000000000000000081526004016107d490612604565b60405180910390fd5b80915050919050565b60008073ffffffffffffffffffffffffffffffffffffffff168273ffffffffffffffffffffffffffffffffffffffff161415610857576040517f08c379a000000000000000000000000000000000000000000000000000000000815260040161084e906125e4565b60405180910390fd5b600360008373ffffffffffffffffffffffffffffffffffffffff1673ffffffffffffffffffffffffffffffffffffffff168152602001908152602001600020549050919050565b6108a6610e06565b73ffffffffffffffffffffffffffffffffffffffff166108c4610926565b73ffffffffffffffffffffffffffffffffffffffff161461091a576040517f08c379a000000000000000000000000000000000000000000000000000000000815260040161091190612664565b60405180910390fd5b6109246000611201565b565b6000600660009054906101000a900473ffffffffffffffffffffffffffffffffffffffff16905090565b60606001805461095f90612964565b80601f016020809104026020016040519081016040528092919081815260200182805461098b90612964565b80156109d85780601f106109ad576101008083540402835291602001916109d8565b820191906000526020600020905b8154815290600101906020018083116109bb57829003601f168201915b5050505050905090565b6109f46109ed610e06565b83836112c7565b5050565b6000610a02610e06565b73ffffffffffffffffffffffffffffffffffffffff16610a20610926565b73ffffffffffffffffffffffffffffffffffffffff1614610a76576040517f08c379a0000000000000000000000000000000000000000000000000000000008152600401610a6d90612664565b60405180910390fd5b610a806007611434565b6000610a8c600761144a565b9050610a988482611458565b8091505092915050565b610aac8483610ec7565b610aeb576040517f08c379a0000000000000000000000000000000000000000000000000000000008152600401610ae2906126e4565b60405180910390fd5b610af784848484611626565b50505050565b6060610b0882610d9a565b610b47576040517f08c379a0000000000000000000000000000000000000000000000000000000008152600401610b3e906126a4565b60405180910390fd5b6000610b51611682565b90506000815111610b715760405180602001604052806000815250610b9c565b80610b7b84611699565b604051602001610b8c92919061243c565b6040516020818303038152906040525b915050919050565b6000600560008473ffffffffffffffffffffffffffffffffffffffff1673ffffffffffffffffffffffffffffffffffffffff16815260200190815260200160002060008373ffffffffffffffffffffffffffffffffffffffff1673ffffffffffffffffffffffffffffffffffffffff16815260200190815260200160002060009054906101000a900460ff16905092915050565b610c40610e06565b73ffffffffffffffffffffffffffffffffffffffff16610c5e610926565b73ffffffffffffffffffffffffffffffffffffffff1614610cb4576040517f08c379a0000000000000000000000000000000000000000000000000000000008152600401610cab90612664565b60405180910390fd5b600073ffffffffffffffffffffffffffffffffffffffff168173ffffffffffffffffffffffffffffffffffffffff161415610d24576040517f08c379a0000000000000000000000000000000000000000000000000000000008152600401610d1b90612524565b60405180910390fd5b610d2d81611201565b50565b60007f01ffc9a7000000000000000000000000000000000000000000000000000000007bffffffffffffffffffffffffffffffffffffffffffffffffffffffff1916827bffffffffffffffffffffffffffffffffffffffffffffffffffffffff1916149050919050565b60008073ffffffffffffffffffffffffffffffffffffffff166002600084815260200190815260200160002060009054906101000a900473ffffffffffffffffffffffffffffffffffffffff1673ffffffffffffffffffffffffffffffffffffffff1614159050919050565b600033905090565b816004600083815260200190815260200160002060006101000a81548173ffffffffffffffffffffffffffffffffffffffff021916908373ffffffffffffffffffffffffffffffffffffffff160217905550808273ffffffffffffffffffffffffffffffffffffffff16610e8183610734565b73ffffffffffffffffffffffffffffffffffffffff167f8c5be1e5ebec7d5bd14f71427d1e84f3dd0314c0f7b2291e5b200ac8c7c3b92560405160405180910390a45050565b6000610ed282610d9a565b610f11576040517f08c379a0000000000000000000000000000000000000000000000000000000008152600401610f08906125a4565b60405180910390fd5b6000610f1c83610734565b90508073ffffffffffffffffffffffffffffffffffffffff168473ffffffffffffffffffffffffffffffffffffffff161480610f8b57508373ffffffffffffffffffffffffffffffffffffffff16610f7384610507565b73ffffffffffffffffffffffffffffffffffffffff16145b80610f9c5750610f9b8185610ba4565b5b91505092915050565b8273ffffffffffffffffffffffffffffffffffffffff16610fc582610734565b73ffffffffffffffffffffffffffffffffffffffff161461101b576040517f08c379a000000000000000000000000000000000000000000000000000000000815260040161101290612684565b60405180910390fd5b600073ffffffffffffffffffffffffffffffffffffffff168273ffffffffffffffffffffffffffffffffffffffff16141561108b576040517f08c379a000000000000000000000000000000000000000000000000000000000815260040161108290612564565b60405180910390fd5b611096838383611846565b6110a1600082610e0e565b6001600360008573ffffffffffffffffffffffffffffffffffffffff1673ffffffffffffffffffffffffffffffffffffffff16815260200190815260200160002060008282546110f1919061287a565b925050819055506001600360008473ffffffffffffffffffffffffffffffffffffffff1673ffffffffffffffffffffffffffffffffffffffff168152602001908152602001600020600082825461114891906127f3565b92505081905550816002600083815260200190815260200160002060006101000a81548173ffffffffffffffffffffffffffffffffffffffff021916908373ffffffffffffffffffffffffffffffffffffffff160217905550808273ffffffffffffffffffffffffffffffffffffffff168473ffffffffffffffffffffffffffffffffffffffff167fddf252ad1be2c89b69c2b068fc378daa952ba7f163c4a11628f55a4df523b3ef60405160405180910390a4505050565b6000600660009054906101000a900473ffffffffffffffffffffffffffffffffffffffff16905081600660006101000a81548173ffffffffffffffffffffffffffffffffffffffff021916908373ffffffffffffffffffffffffffffffffffffffff1602179055508173ffffffffffffffffffffffffffffffffffffffff168173ffffffffffffffffffffffffffffffffffffffff167f8be0079c531659141344cd1fd0a4f28419497f9722a3daafe3b4186f6b6457e060405160405180910390a35050565b8173ffffffffffffffffffffffffffffffffffffffff168373ffffffffffffffffffffffffffffffffffffffff161415611336576040517f08c379a000000000000000000000000000000000000000000000000000000000815260040161132d90612584565b60405180910390fd5b80600560008573ffffffffffffffffffffffffffffffffffffffff1673ffffffffffffffffffffffffffffffffffffffff16815260200190815260200160002060008473ffffffffffffffffffffffffffffffffffffffff1673ffffffffffffffffffffffffffffffffffffffff16815260200190815260200160002060006101000a81548160ff0219169083151502179055508173ffffffffffffffffffffffffffffffffffffffff168373ffffffffffffffffffffffffffffffffffffffff167f17307eab39ab6107e8899845ad3d59bd9653f200f220920489ca2b5937696c318360405161142791906124c7565b60405180910390a3505050565b6001816000016000828254019250508190555050565b600081600001549050919050565b600073ffffffffffffffffffffffffffffffffffffffff168273ffffffffffffffffffffffffffffffffffffffff1614156114c8576040517f08c379a00000000000000000000000000000000000000000000000000000000081526004016114bf90612624565b60405180910390fd5b6114d181610d9a565b15611511576040517f08c379a000000000000000000000000000000000000000000000000000000000815260040161150890612544565b60405180910390fd5b61151d60008383611846565b6001600360008473ffffffffffffffffffffffffffffffffffffffff1673ffffffffffffffffffffffffffffffffffffffff168152602001908152602001600020600082825461156d91906127f3565b92505081905550816002600083815260200190815260200160002060006101000a81548173ffffffffffffffffffffffffffffffffffffffff021916908373ffffffffffffffffffffffffffffffffffffffff160217905550808273ffffffffffffffffffffffffffffffffffffffff16600073ffffffffffffffffffffffffffffffffffffffff167fddf252ad1be2c89b69c2b068fc378daa952ba7f163c4a11628f55a4df523b3ef60405160405180910390a45050565b611631848484610fa5565b61163d8484848461184b565b61167c576040517f08c379a000000000000000000000000000000000000000000000000000000000815260040161167390612504565b60405180910390fd5b50505050565b606060405180602001604052806000815250905090565b606060008214156116e1576040518060400160405280600181526020017f30000000000000000000000000000000000000000000000000000000000000008152509050611841565b600082905060005b600082146117135780806116fc90612996565b915050600a8261170c9190612849565b91506116e9565b60008167ffffffffffffffff811115611755577f4e487b7100000000000000000000000000000000000000000000000000000000600052604160045260246000fd5b6040519080825280601f01601f1916602001820160405280156117875781602001600182028036833780820191505090505b5090505b6000851461183a576001826117a0919061287a565b9150600a856117af91906129df565b60306117bb91906127f3565b60f81b8183815181106117f7577f4e487b7100000000000000000000000000000000000000000000000000000000600052603260045260246000fd5b60200101907effffffffffffffffffffffffffffffffffffffffffffffffffffffffffffff1916908160001a905350600a856118339190612849565b945061178b565b8093505050505b919050565b505050565b600061186c8473ffffffffffffffffffffffffffffffffffffffff166119e2565b156119d5578373ffffffffffffffffffffffffffffffffffffffff1663150b7a02611895610e06565b8786866040518563ffffffff1660e01b81526004016118b7949392919061247b565b602060405180830381600087803b1580156118d157600080fd5b505af192505050801561190257506040513d601f19601f820116820180604052508101906118ff9190611d52565b60015b611985573d8060008114611932576040519150601f19603f3d011682016040523d82523d6000602084013e611937565b606091505b5060008151141561197d576040517f08c379a000000000000000000000000000000000000000000000000000000000815260040161197490612504565b60405180910390fd5b805181602001fd5b63150b7a0260e01b7bffffffffffffffffffffffffffffffffffffffffffffffffffffffff1916817bffffffffffffffffffffffffffffffffffffffffffffffffffffffff1916149150506119da565b600190505b949350505050565b600080823b905060008111915050919050565b6000611a08611a0384612750565b61271f565b905082815260208101848484011115611a2057600080fd5b611a2b848285612922565b509392505050565b6000611a46611a4184612780565b61271f565b905082815260208101848484011115611a5e57600080fd5b611a69848285612922565b509392505050565b600081359050611a8081612add565b92915050565b600081359050611a9581612af4565b92915050565b600081359050611aaa81612b0b565b92915050565b600081519050611abf81612b0b565b92915050565b600082601f830112611ad657600080fd5b8135611ae68482602086016119f5565b91505092915050565b600082601f830112611b0057600080fd5b8135611b10848260208601611a33565b91505092915050565b600081359050611b2881612b22565b92915050565b600060208284031215611b4057600080fd5b6000611b4e84828501611a71565b91505092915050565b60008060408385031215611b6a57600080fd5b6000611b7885828601611a71565b9250506020611b8985828601611a71565b9150509250929050565b600080600060608486031215611ba857600080fd5b6000611bb686828701611a71565b9350506020611bc786828701611a71565b9250506040611bd886828701611b19565b9150509250925092565b60008060008060808587031215611bf857600080fd5b6000611c0687828801611a71565b9450506020611c1787828801611a71565b9350506040611c2887828801611b19565b925050606085013567ffffffffffffffff811115611c4557600080fd5b611c5187828801611ac5565b91505092959194509250565b60008060408385031215611c7057600080fd5b6000611c7e85828601611a71565b9250506020611c8f85828601611a86565b9150509250929050565b60008060408385031215611cac57600080fd5b6000611cba85828601611a71565b925050602083013567ffffffffffffffff811115611cd757600080fd5b611ce385828601611aef565b9150509250929050565b60008060408385031215611d0057600080fd5b6000611d0e85828601611a71565b9250506020611d1f85828601611b19565b9150509250929050565b600060208284031215611d3b57600080fd5b6000611d4984828501611a9b565b91505092915050565b600060208284031215611d6457600080fd5b6000611d7284828501611ab0565b91505092915050565b600060208284031215611d8d57600080fd5b6000611d9b84828501611b19565b91505092915050565b611dad816128ae565b82525050565b611dbc816128c0565b82525050565b6000611dcd826127b0565b611dd781856127c6565b9350611de7818560208601612931565b611df081612acc565b840191505092915050565b6000611e06826127bb565b611e1081856127d7565b9350611e20818560208601612931565b611e2981612acc565b840191505092915050565b6000611e3f826127bb565b611e4981856127e8565b9350611e59818560208601612931565b80840191505092915050565b6000611e726032836127d7565b91507f4552433732313a207472616e7366657220746f206e6f6e20455243373231526560008301527f63656976657220696d706c656d656e74657200000000000000000000000000006020830152604082019050919050565b6000611ed86026836127d7565b91507f4f776e61626c653a206e6577206f776e657220697320746865207a65726f206160008301527f64647265737300000000000000000000000000000000000000000000000000006020830152604082019050919050565b6000611f3e601c836127d7565b91507f4552433732313a20746f6b656e20616c7265616479206d696e746564000000006000830152602082019050919050565b6000611f7e6024836127d7565b91507f4552433732313a207472616e7366657220746f20746865207a65726f2061646460008301527f72657373000000000000000000000000000000000000000000000000000000006020830152604082019050919050565b6000611fe46019836127d7565b91507f4552433732313a20617070726f766520746f2063616c6c6572000000000000006000830152602082019050919050565b6000612024602c836127d7565b91507f4552433732313a206f70657261746f7220717565727920666f72206e6f6e657860008301527f697374656e7420746f6b656e00000000000000000000000000000000000000006020830152604082019050919050565b600061208a6038836127d7565b91507f4552433732313a20617070726f76652063616c6c6572206973206e6f74206f7760008301527f6e6572206e6f7220617070726f76656420666f7220616c6c00000000000000006020830152604082019050919050565b60006120f0602a836127d7565b91507f4552433732313a2062616c616e636520717565727920666f7220746865207a6560008301527f726f2061646472657373000000000000000000000000000000000000000000006020830152604082019050919050565b60006121566029836127d7565b91507f4552433732313a206f776e657220717565727920666f72206e6f6e657869737460008301527f656e7420746f6b656e00000000000000000000000000000000000000000000006020830152604082019050919050565b60006121bc6020836127d7565b91507f4552433732313a206d696e7420746f20746865207a65726f20616464726573736000830152602082019050919050565b60006121fc602c836127d7565b91507f4552433732313a20617070726f76656420717565727920666f72206e6f6e657860008301527f697374656e7420746f6b656e00000000000000000000000000000000000000006020830152604082019050919050565b60006122626020836127d7565b91507f4f776e61626c653a2063616c6c6572206973206e6f7420746865206f776e65726000830152602082019050919050565b60006122a26029836127d7565b91507f4552433732313a207472616e73666572206f6620746f6b656e2074686174206960008301527f73206e6f74206f776e00000000000000000000000000000000000000000000006020830152604082019050919050565b6000612308602f836127d7565b91507f4552433732314d657461646174613a2055524920717565727920666f72206e6f60008301527f6e6578697374656e7420746f6b656e00000000000000000000000000000000006020830152604082019050919050565b600061236e6021836127d7565b91507f4552433732313a20617070726f76616c20746f2063757272656e74206f776e6560008301527f72000000000000000000000000000000000000000000000000000000000000006020830152604082019050919050565b60006123d46031836127d7565b91507f4552433732313a207472616e736665722063616c6c6572206973206e6f74206f60008301527f776e6572206e6f7220617070726f7665640000000000000000000000000000006020830152604082019050919050565b61243681612918565b82525050565b60006124488285611e34565b91506124548284611e34565b91508190509392505050565b60006020820190506124756000830184611da4565b92915050565b60006080820190506124906000830187611da4565b61249d6020830186611da4565b6124aa604083018561242d565b81810360608301526124bc8184611dc2565b905095945050505050565b60006020820190506124dc6000830184611db3565b92915050565b600060208201905081810360008301526124fc8184611dfb565b905092915050565b6000602082019050818103600083015261251d81611e65565b9050919050565b6000602082019050818103600083015261253d81611ecb565b9050919050565b6000602082019050818103600083015261255d81611f31565b9050919050565b6000602082019050818103600083015261257d81611f71565b9050919050565b6000602082019050818103600083015261259d81611fd7565b9050919050565b600060208201905081810360008301526125bd81612017565b9050919050565b600060208201905081810360008301526125dd8161207d565b9050919050565b600060208201905081810360008301526125fd816120e3565b9050919050565b6000602082019050818103600083015261261d81612149565b9050919050565b6000602082019050818103600083015261263d816121af565b9050919050565b6000602082019050818103600083015261265d816121ef565b9050919050565b6000602082019050818103600083015261267d81612255565b9050919050565b6000602082019050818103600083015261269d81612295565b9050919050565b600060208201905081810360008301526126bd816122fb565b9050919050565b600060208201905081810360008301526126dd81612361565b9050919050565b600060208201905081810360008301526126fd816123c7565b9050919050565b6000602082019050612719600083018461242d565b92915050565b6000604051905081810181811067ffffffffffffffff8211171561274657612745612a9d565b5b8060405250919050565b600067ffffffffffffffff82111561276b5761276a612a9d565b5b601f19601f8301169050602081019050919050565b600067ffffffffffffffff82111561279b5761279a612a9d565b5b601f19601f8301169050602081019050919050565b600081519050919050565b600081519050919050565b600082825260208201905092915050565b600082825260208201905092915050565b600081905092915050565b60006127fe82612918565b915061280983612918565b9250827fffffffffffffffffffffffffffffffffffffffffffffffffffffffffffffffff0382111561283e5761283d612a10565b5b828201905092915050565b600061285482612918565b915061285f83612918565b92508261286f5761286e612a3f565b5b828204905092915050565b600061288582612918565b915061289083612918565b9250828210156128a3576128a2612a10565b5b828203905092915050565b60006128b9826128f8565b9050919050565b60008115159050919050565b60007fffffffff0000000000000000000000000000000000000000000000000000000082169050919050565b600073ffffffffffffffffffffffffffffffffffffffff82169050919050565b6000819050919050565b82818337600083830152505050565b60005b8381101561294f578082015181840152602081019050612934565b8381111561295e576000848401525b50505050565b6000600282049050600182168061297c57607f821691505b602082108114156129905761298f612a6e565b5b50919050565b60006129a182612918565b91507fffffffffffffffffffffffffffffffffffffffffffffffffffffffffffffffff8214156129d4576129d3612a10565b5b600182019050919050565b60006129ea82612918565b91506129f583612918565b925082612a0557612a04612a3f565b5b828206905092915050565b7f4e487b7100000000000000000000000000000000000000000000000000000000600052601160045260246000fd5b7f4e487b7100000000000000000000000000000000000000000000000000000000600052601260045260246000fd5b7f4e487b7100000000000000000000000000000000000000000000000000000000600052602260045260246000fd5b7f4e487b7100000000000000000000000000000000000000000000000000000000600052604160045260246000fd5b6000601f19601f8301169050919050565b612ae6816128ae565b8114612af157600080fd5b50565b612afd816128c0565b8114612b0857600080fd5b50565b612b14816128cc565b8114612b1f57600080fd5b50565b612b2b81612918565b8114612b3657600080fd5b5056fea2646970667358221220038e1d64da33f6ed87fb49947349d1f24506f09216c33cd16bb2b4051dd1950264736f6c63430008000033",
  "linkReferences": {},
  "deployedLinkReferences": {}
}